{
  "_format": "hh-sol-artifact-1",
  "contractName": "Tokens",
  "sourceName": "contracts/Token.sol",
  "abi": [
    {
      "inputs": [
        {
          "internalType": "uint256",
          "name": "_amount",
          "type": "uint256"
        }
      ],
      "stateMutability": "nonpayable",
      "type": "constructor"
    },
    {
      "anonymous": false,
      "inputs": [
        {
          "indexed": true,
          "internalType": "address",
          "name": "owner",
          "type": "address"
        },
        {
          "indexed": true,
          "internalType": "address",
          "name": "spender",
          "type": "address"
        },
        {
          "indexed": false,
          "internalType": "uint256",
          "name": "value",
          "type": "uint256"
        }
      ],
      "name": "Approval",
      "type": "event"
    },
    {
      "anonymous": false,
      "inputs": [
        {
          "indexed": true,
          "internalType": "address",
          "name": "from",
          "type": "address"
        },
        {
          "indexed": true,
          "internalType": "address",
          "name": "to",
          "type": "address"
        },
        {
          "indexed": false,
          "internalType": "uint256",
          "name": "value",
          "type": "uint256"
        }
      ],
      "name": "Transfer",
      "type": "event"
    },
    {
      "inputs": [
        {
          "internalType": "address",
          "name": "owner",
          "type": "address"
        },
        {
          "internalType": "address",
          "name": "spender",
          "type": "address"
        }
      ],
      "name": "allowance",
      "outputs": [
        {
          "internalType": "uint256",
          "name": "",
          "type": "uint256"
        }
      ],
      "stateMutability": "view",
      "type": "function"
    },
    {
      "inputs": [
        {
          "internalType": "address",
          "name": "spender",
          "type": "address"
        },
        {
          "internalType": "uint256",
          "name": "amount",
          "type": "uint256"
        }
      ],
      "name": "approve",
      "outputs": [
        {
          "internalType": "bool",
          "name": "",
          "type": "bool"
        }
      ],
      "stateMutability": "nonpayable",
      "type": "function"
    },
    {
      "inputs": [
        {
          "internalType": "address",
          "name": "account",
          "type": "address"
        }
      ],
      "name": "balanceOf",
      "outputs": [
        {
          "internalType": "uint256",
          "name": "",
          "type": "uint256"
        }
      ],
      "stateMutability": "view",
      "type": "function"
    },
    {
      "inputs": [
        {
          "internalType": "uint256",
          "name": "_amount",
          "type": "uint256"
        }
      ],
      "name": "burn",
      "outputs": [],
      "stateMutability": "nonpayable",
      "type": "function"
    },
    {
      "inputs": [],
      "name": "cap",
      "outputs": [
        {
          "internalType": "uint256",
          "name": "",
          "type": "uint256"
        }
      ],
      "stateMutability": "view",
      "type": "function"
    },
    {
      "inputs": [],
      "name": "decimals",
      "outputs": [
        {
          "internalType": "uint8",
          "name": "",
          "type": "uint8"
        }
      ],
      "stateMutability": "view",
      "type": "function"
    },
    {
      "inputs": [
        {
          "internalType": "address",
          "name": "spender",
          "type": "address"
        },
        {
          "internalType": "uint256",
          "name": "subtractedValue",
          "type": "uint256"
        }
      ],
      "name": "decreaseAllowance",
      "outputs": [
        {
          "internalType": "bool",
          "name": "",
          "type": "bool"
        }
      ],
      "stateMutability": "nonpayable",
      "type": "function"
    },
    {
      "inputs": [],
      "name": "getTaxPercentage",
      "outputs": [
        {
          "internalType": "uint256",
          "name": "",
          "type": "uint256"
        }
      ],
      "stateMutability": "view",
      "type": "function"
    },
    {
      "inputs": [
        {
          "internalType": "address",
          "name": "spender",
          "type": "address"
        },
        {
          "internalType": "uint256",
          "name": "addedValue",
          "type": "uint256"
        }
      ],
      "name": "increaseAllowance",
      "outputs": [
        {
          "internalType": "bool",
          "name": "",
          "type": "bool"
        }
      ],
      "stateMutability": "nonpayable",
      "type": "function"
    },
    {
      "inputs": [],
      "name": "mint",
      "outputs": [
        {
          "internalType": "bool",
          "name": "",
          "type": "bool"
        }
      ],
      "stateMutability": "payable",
      "type": "function"
    },
    {
      "inputs": [],
      "name": "name",
      "outputs": [
        {
          "internalType": "string",
          "name": "",
          "type": "string"
        }
      ],
      "stateMutability": "view",
      "type": "function"
    },
    {
      "inputs": [
        {
          "internalType": "address",
          "name": "acc",
          "type": "address"
        }
      ],
      "name": "setExemptedAccount",
      "outputs": [],
      "stateMutability": "nonpayable",
      "type": "function"
    },
    {
      "inputs": [
        {
          "internalType": "uint256",
          "name": "_amount",
          "type": "uint256"
        }
      ],
      "name": "simpleMint",
      "outputs": [
        {
          "internalType": "bool",
          "name": "",
          "type": "bool"
        }
      ],
      "stateMutability": "nonpayable",
      "type": "function"
    },
    {
      "inputs": [],
      "name": "symbol",
      "outputs": [
        {
          "internalType": "string",
          "name": "",
          "type": "string"
        }
      ],
      "stateMutability": "view",
      "type": "function"
    },
    {
      "inputs": [],
      "name": "totalSupply",
      "outputs": [
        {
          "internalType": "uint256",
          "name": "",
          "type": "uint256"
        }
      ],
      "stateMutability": "view",
      "type": "function"
    },
    {
      "inputs": [
        {
          "internalType": "address",
          "name": "_to",
          "type": "address"
        },
        {
          "internalType": "uint256",
          "name": "_amount",
          "type": "uint256"
        }
      ],
      "name": "transfer",
      "outputs": [
        {
          "internalType": "bool",
          "name": "",
          "type": "bool"
        }
      ],
      "stateMutability": "nonpayable",
      "type": "function"
    },
    {
      "inputs": [
        {
          "internalType": "address",
          "name": "from",
          "type": "address"
        },
        {
          "internalType": "address",
          "name": "to",
          "type": "address"
        },
        {
          "internalType": "uint256",
          "name": "amount",
          "type": "uint256"
        }
      ],
      "name": "transferFrom",
      "outputs": [
        {
          "internalType": "bool",
          "name": "",
          "type": "bool"
        }
      ],
      "stateMutability": "nonpayable",
      "type": "function"
    }
  ],
  "bytecode": "0x60806040523480156200001157600080fd5b506040516200231a3803806200231a83398181016040528101906200003791906200021e565b6040518060400160405280600481526020017f74657374000000000000000000000000000000000000000000000000000000008152506040518060400160405280600381526020017f54535400000000000000000000000000000000000000000000000000000000008152508160039080519060200190620000bb9291906200012e565b508060049080519060200190620000d49291906200012e565b5050508060058190555033600660006101000a81548173ffffffffffffffffffffffffffffffffffffffff021916908373ffffffffffffffffffffffffffffffffffffffff160217905550600a60078190555050620002b5565b8280546200013c906200027f565b90600052602060002090601f016020900481019282620001605760008555620001ac565b82601f106200017b57805160ff1916838001178555620001ac565b82800160010185558215620001ac579182015b82811115620001ab5782518255916020019190600101906200018e565b5b509050620001bb9190620001bf565b5090565b5b80821115620001da576000816000905550600101620001c0565b5090565b600080fd5b6000819050919050565b620001f881620001e3565b81146200020457600080fd5b50565b6000815190506200021881620001ed565b92915050565b600060208284031215620002375762000236620001de565b5b6000620002478482850162000207565b91505092915050565b7f4e487b7100000000000000000000000000000000000000000000000000000000600052602260045260246000fd5b600060028204905060018216806200029857607f821691505b60208210811415620002af57620002ae62000250565b5b50919050565b61205580620002c56000396000f3fe6080604052600436106100fe5760003560e01c8063395093511161009557806370a082311161006457806370a082311461033e57806395d89b411461037b578063a457c2d7146103a6578063a9059cbb146103e3578063dd62ed3e14610420576100fe565b8063395093511461027057806341550f2e146102ad57806342966c68146102d85780636bd4e72c14610301576100fe565b806323b872dd116100d157806323b872dd146101b4578063313ce567146101f1578063355274ea1461021c578063382e37e414610247576100fe565b806306fdde0314610103578063095ea7b31461012e5780631249c58b1461016b57806318160ddd14610189575b600080fd5b34801561010f57600080fd5b5061011861045d565b6040516101259190611422565b60405180910390f35b34801561013a57600080fd5b50610155600480360381019061015091906114dd565b6104ef565b6040516101629190611538565b60405180910390f35b610173610512565b6040516101809190611538565b60405180910390f35b34801561019557600080fd5b5061019e610711565b6040516101ab9190611562565b60405180910390f35b3480156101c057600080fd5b506101db60048036038101906101d6919061157d565b61071b565b6040516101e89190611538565b60405180910390f35b3480156101fd57600080fd5b5061020661074a565b60405161021391906115ec565b60405180910390f35b34801561022857600080fd5b50610231610753565b60405161023e9190611562565b60405180910390f35b34801561025357600080fd5b5061026e60048036038101906102699190611607565b610759565b005b34801561027c57600080fd5b50610297600480360381019061029291906114dd565b610844565b6040516102a49190611538565b60405180910390f35b3480156102b957600080fd5b506102c261087b565b6040516102cf9190611562565b60405180910390f35b3480156102e457600080fd5b506102ff60048036038101906102fa9190611634565b610885565b005b34801561030d57600080fd5b5061032860048036038101906103239190611634565b6108ed565b6040516103359190611538565b60405180910390f35b34801561034a57600080fd5b5061036560048036038101906103609190611607565b610902565b6040516103729190611562565b60405180910390f35b34801561038757600080fd5b5061039061094a565b60405161039d9190611422565b60405180910390f35b3480156103b257600080fd5b506103cd60048036038101906103c891906114dd565b6109dc565b6040516103da9190611538565b60405180910390f35b3480156103ef57600080fd5b5061040a600480360381019061040591906114dd565b610a53565b6040516104179190611538565b60405180910390f35b34801561042c57600080fd5b5061044760048036038101906104429190611661565b610afc565b6040516104549190611562565b60405180910390f35b60606003805461046c906116d0565b80601f0160208091040260200160405190810160405280929190818152602001828054610498906116d0565b80156104e55780601f106104ba576101008083540402835291602001916104e5565b820191906000526020600020905b8154815290600101906020018083116104c857829003601f168201915b5050505050905090565b6000806104fa610b83565b9050610507818585610b8b565b600191505092915050565b600067016345785d8a000034101561055f576040517f08c379a00000000000000000000000000000000000000000000000000000000081526004016105569061174e565b60405180910390fd5b671bc16d674ec800003411156105aa576040517f08c379a00000000000000000000000000000000000000000000000000000000081526004016105a1906117ba565b60405180910390fd5b600062989680346105bb9190611809565b9050600554816105c9610711565b6105d39190611863565b1115610614576040517f08c379a000000000000000000000000000000000000000000000000000000000815260040161060b9061192b565b60405180910390fd5b671bc16d674ec8000034600960003373ffffffffffffffffffffffffffffffffffffffff1673ffffffffffffffffffffffffffffffffffffffff168152602001908152602001600020546106689190611863565b11156106a9576040517f08c379a00000000000000000000000000000000000000000000000000000000081526004016106a090611997565b60405180910390fd5b6106b33382610d56565b34600960003373ffffffffffffffffffffffffffffffffffffffff1673ffffffffffffffffffffffffffffffffffffffff16815260200190815260200160002060008282546107029190611863565b92505081905550600191505090565b6000600254905090565b600080610726610b83565b9050610733858285610ead565b61073e858585610f39565b60019150509392505050565b60006012905090565b60055481565b600660009054906101000a900473ffffffffffffffffffffffffffffffffffffffff1673ffffffffffffffffffffffffffffffffffffffff163373ffffffffffffffffffffffffffffffffffffffff16146107e9576040517f08c379a00000000000000000000000000000000000000000000000000000000081526004016107e090611a03565b60405180910390fd5b6001600860008373ffffffffffffffffffffffffffffffffffffffff1673ffffffffffffffffffffffffffffffffffffffff16815260200190815260200160002060006101000a81548160ff02191690831515021790555050565b60008061084f610b83565b90506108708185856108618589610afc565b61086b9190611863565b610b8b565b600191505092915050565b6000600754905090565b600062989680826108969190611a52565b90503373ffffffffffffffffffffffffffffffffffffffff166108fc829081150290604051600060405180830381858888f193505050501580156108de573d6000803e3d6000fd5b506108e933836111b1565b5050565b60006108f93383610d56565b60019050919050565b60008060008373ffffffffffffffffffffffffffffffffffffffff1673ffffffffffffffffffffffffffffffffffffffff168152602001908152602001600020549050919050565b606060048054610959906116d0565b80601f0160208091040260200160405190810160405280929190818152602001828054610985906116d0565b80156109d25780601f106109a7576101008083540402835291602001916109d2565b820191906000526020600020905b8154815290600101906020018083116109b557829003601f168201915b5050505050905090565b6000806109e7610b83565b905060006109f58286610afc565b905083811015610a3a576040517f08c379a0000000000000000000000000000000000000000000000000000000008152600401610a3190611af5565b60405180910390fd5b610a478286868403610b8b565b60019250505092915050565b600080600860003373ffffffffffffffffffffffffffffffffffffffff1673ffffffffffffffffffffffffffffffffffffffff16815260200190815260200160002060009054906101000a900460ff16610ad257606483600754610ab79190611809565b610ac19190611a52565b90508083610acf9190611b15565b92505b610add338585610f39565b6000811115610af157610af033826111b1565b5b600191505092915050565b6000600160008473ffffffffffffffffffffffffffffffffffffffff1673ffffffffffffffffffffffffffffffffffffffff16815260200190815260200160002060008373ffffffffffffffffffffffffffffffffffffffff1673ffffffffffffffffffffffffffffffffffffffff16815260200190815260200160002054905092915050565b600033905090565b600073ffffffffffffffffffffffffffffffffffffffff168373ffffffffffffffffffffffffffffffffffffffff161415610bfb576040517f08c379a0000000000000000000000000000000000000000000000000000000008152600401610bf290611bbb565b60405180910390fd5b600073ffffffffffffffffffffffffffffffffffffffff168273ffffffffffffffffffffffffffffffffffffffff161415610c6b576040517f08c379a0000000000000000000000000000000000000000000000000000000008152600401610c6290611c4d565b60405180910390fd5b80600160008573ffffffffffffffffffffffffffffffffffffffff1673ffffffffffffffffffffffffffffffffffffffff16815260200190815260200160002060008473ffffffffffffffffffffffffffffffffffffffff1673ffffffffffffffffffffffffffffffffffffffff168152602001908152602001600020819055508173ffffffffffffffffffffffffffffffffffffffff168373ffffffffffffffffffffffffffffffffffffffff167f8c5be1e5ebec7d5bd14f71427d1e84f3dd0314c0f7b2291e5b200ac8c7c3b92583604051610d499190611562565b60405180910390a3505050565b600073ffffffffffffffffffffffffffffffffffffffff168273ffffffffffffffffffffffffffffffffffffffff161415610dc6576040517f08c379a0000000000000000000000000000000000000000000000000000000008152600401610dbd90611cb9565b60405180910390fd5b610dd26000838361137f565b8060026000828254610de49190611863565b92505081905550806000808473ffffffffffffffffffffffffffffffffffffffff1673ffffffffffffffffffffffffffffffffffffffff168152602001908152602001600020600082825401925050819055508173ffffffffffffffffffffffffffffffffffffffff16600073ffffffffffffffffffffffffffffffffffffffff167fddf252ad1be2c89b69c2b068fc378daa952ba7f163c4a11628f55a4df523b3ef83604051610e959190611562565b60405180910390a3610ea960008383611384565b5050565b6000610eb98484610afc565b90507fffffffffffffffffffffffffffffffffffffffffffffffffffffffffffffffff8114610f335781811015610f25576040517f08c379a0000000000000000000000000000000000000000000000000000000008152600401610f1c90611d25565b60405180910390fd5b610f328484848403610b8b565b5b50505050565b600073ffffffffffffffffffffffffffffffffffffffff168373ffffffffffffffffffffffffffffffffffffffff161415610fa9576040517f08c379a0000000000000000000000000000000000000000000000000000000008152600401610fa090611db7565b60405180910390fd5b600073ffffffffffffffffffffffffffffffffffffffff168273ffffffffffffffffffffffffffffffffffffffff161415611019576040517f08c379a000000000000000000000000000000000000000000000000000000000815260040161101090611e49565b60405180910390fd5b61102483838361137f565b60008060008573ffffffffffffffffffffffffffffffffffffffff1673ffffffffffffffffffffffffffffffffffffffff168152602001908152602001600020549050818110156110aa576040517f08c379a00000000000000000000000000000000000000000000000000000000081526004016110a190611edb565b60405180910390fd5b8181036000808673ffffffffffffffffffffffffffffffffffffffff1673ffffffffffffffffffffffffffffffffffffffff16815260200190815260200160002081905550816000808573ffffffffffffffffffffffffffffffffffffffff1673ffffffffffffffffffffffffffffffffffffffff168152602001908152602001600020600082825401925050819055508273ffffffffffffffffffffffffffffffffffffffff168473ffffffffffffffffffffffffffffffffffffffff167fddf252ad1be2c89b69c2b068fc378daa952ba7f163c4a11628f55a4df523b3ef846040516111989190611562565b60405180910390a36111ab848484611384565b50505050565b600073ffffffffffffffffffffffffffffffffffffffff168273ffffffffffffffffffffffffffffffffffffffff161415611221576040517f08c379a000000000000000000000000000000000000000000000000000000000815260040161121890611f6d565b60405180910390fd5b61122d8260008361137f565b60008060008473ffffffffffffffffffffffffffffffffffffffff1673ffffffffffffffffffffffffffffffffffffffff168152602001908152602001600020549050818110156112b3576040517f08c379a00000000000000000000000000000000000000000000000000000000081526004016112aa90611fff565b60405180910390fd5b8181036000808573ffffffffffffffffffffffffffffffffffffffff1673ffffffffffffffffffffffffffffffffffffffff1681526020019081526020016000208190555081600260008282540392505081905550600073ffffffffffffffffffffffffffffffffffffffff168373ffffffffffffffffffffffffffffffffffffffff167fddf252ad1be2c89b69c2b068fc378daa952ba7f163c4a11628f55a4df523b3ef846040516113669190611562565b60405180910390a361137a83600084611384565b505050565b505050565b505050565b600081519050919050565b600082825260208201905092915050565b60005b838110156113c35780820151818401526020810190506113a8565b838111156113d2576000848401525b50505050565b6000601f19601f8301169050919050565b60006113f482611389565b6113fe8185611394565b935061140e8185602086016113a5565b611417816113d8565b840191505092915050565b6000602082019050818103600083015261143c81846113e9565b905092915050565b600080fd5b600073ffffffffffffffffffffffffffffffffffffffff82169050919050565b600061147482611449565b9050919050565b61148481611469565b811461148f57600080fd5b50565b6000813590506114a18161147b565b92915050565b6000819050919050565b6114ba816114a7565b81146114c557600080fd5b50565b6000813590506114d7816114b1565b92915050565b600080604083850312156114f4576114f3611444565b5b600061150285828601611492565b9250506020611513858286016114c8565b9150509250929050565b60008115159050919050565b6115328161151d565b82525050565b600060208201905061154d6000830184611529565b92915050565b61155c816114a7565b82525050565b60006020820190506115776000830184611553565b92915050565b60008060006060848603121561159657611595611444565b5b60006115a486828701611492565b93505060206115b586828701611492565b92505060406115c6868287016114c8565b9150509250925092565b600060ff82169050919050565b6115e6816115d0565b82525050565b600060208201905061160160008301846115dd565b92915050565b60006020828403121561161d5761161c611444565b5b600061162b84828501611492565b91505092915050565b60006020828403121561164a57611649611444565b5b6000611658848285016114c8565b91505092915050565b6000806040838503121561167857611677611444565b5b600061168685828601611492565b925050602061169785828601611492565b9150509250929050565b7f4e487b7100000000000000000000000000000000000000000000000000000000600052602260045260246000fd5b600060028204905060018216806116e857607f821691505b602082108114156116fc576116fb6116a1565b5b50919050565b7f496e766573746d656e7420616d6f756e74206973206c6f770000000000000000600082015250565b6000611738601883611394565b915061174382611702565b602082019050919050565b600060208201905081810360008301526117678161172b565b9050919050565b7f496e76657374656d656e7420616d6f756e7420697320746f6f20686967680000600082015250565b60006117a4601e83611394565b91506117af8261176e565b602082019050919050565b600060208201905081810360008301526117d381611797565b9050919050565b7f4e487b7100000000000000000000000000000000000000000000000000000000600052601160045260246000fd5b6000611814826114a7565b915061181f836114a7565b9250817fffffffffffffffffffffffffffffffffffffffffffffffffffffffffffffffff0483118215151615611858576118576117da565b5b828202905092915050565b600061186e826114a7565b9150611879836114a7565b9250827fffffffffffffffffffffffffffffffffffffffffffffffffffffffffffffffff038211156118ae576118ad6117da565b5b828201905092915050565b7f696e766573746d656e7420616d6f756e742073686f756c64206265206c65737360008201527f207468656e2063617020616d6f756e7400000000000000000000000000000000602082015250565b6000611915603083611394565b9150611920826118b9565b604082019050919050565b6000602082019050818103600083015261194481611908565b9050919050565b7f4d6178206c696d69742072656163686564000000000000000000000000000000600082015250565b6000611981601183611394565b915061198c8261194b565b602082019050919050565b600060208201905081810360008301526119b081611974565b9050919050565b7f41636365737320746f206f6e6c79204f776e6572000000000000000000000000600082015250565b60006119ed601483611394565b91506119f8826119b7565b602082019050919050565b60006020820190508181036000830152611a1c816119e0565b9050919050565b7f4e487b7100000000000000000000000000000000000000000000000000000000600052601260045260246000fd5b6000611a5d826114a7565b9150611a68836114a7565b925082611a7857611a77611a23565b5b828204905092915050565b7f45524332303a2064656372656173656420616c6c6f77616e63652062656c6f7760008201527f207a65726f000000000000000000000000000000000000000000000000000000602082015250565b6000611adf602583611394565b9150611aea82611a83565b604082019050919050565b60006020820190508181036000830152611b0e81611ad2565b9050919050565b6000611b20826114a7565b9150611b2b836114a7565b925082821015611b3e57611b3d6117da565b5b828203905092915050565b7f45524332303a20617070726f76652066726f6d20746865207a65726f2061646460008201527f7265737300000000000000000000000000000000000000000000000000000000602082015250565b6000611ba5602483611394565b9150611bb082611b49565b604082019050919050565b60006020820190508181036000830152611bd481611b98565b9050919050565b7f45524332303a20617070726f766520746f20746865207a65726f20616464726560008201527f7373000000000000000000000000000000000000000000000000000000000000602082015250565b6000611c37602283611394565b9150611c4282611bdb565b604082019050919050565b60006020820190508181036000830152611c6681611c2a565b9050919050565b7f45524332303a206d696e7420746f20746865207a65726f206164647265737300600082015250565b6000611ca3601f83611394565b9150611cae82611c6d565b602082019050919050565b60006020820190508181036000830152611cd281611c96565b9050919050565b7f45524332303a20696e73756666696369656e7420616c6c6f77616e6365000000600082015250565b6000611d0f601d83611394565b9150611d1a82611cd9565b602082019050919050565b60006020820190508181036000830152611d3e81611d02565b9050919050565b7f45524332303a207472616e736665722066726f6d20746865207a65726f20616460008201527f6472657373000000000000000000000000000000000000000000000000000000602082015250565b6000611da1602583611394565b9150611dac82611d45565b604082019050919050565b60006020820190508181036000830152611dd081611d94565b9050919050565b7f45524332303a207472616e7366657220746f20746865207a65726f206164647260008201527f6573730000000000000000000000000000000000000000000000000000000000602082015250565b6000611e33602383611394565b9150611e3e82611dd7565b604082019050919050565b60006020820190508181036000830152611e6281611e26565b9050919050565b7f45524332303a207472616e7366657220616d6f756e742065786365656473206260008201527f616c616e63650000000000000000000000000000000000000000000000000000602082015250565b6000611ec5602683611394565b9150611ed082611e69565b604082019050919050565b60006020820190508181036000830152611ef481611eb8565b9050919050565b7f45524332303a206275726e2066726f6d20746865207a65726f2061646472657360008201527f7300000000000000000000000000000000000000000000000000000000000000602082015250565b6000611f57602183611394565b9150611f6282611efb565b604082019050919050565b60006020820190508181036000830152611f8681611f4a565b9050919050565b7f45524332303a206275726e20616d6f756e7420657863656564732062616c616e60008201527f6365000000000000000000000000000000000000000000000000000000000000602082015250565b6000611fe9602283611394565b9150611ff482611f8d565b604082019050919050565b6000602082019050818103600083015261201881611fdc565b905091905056fea264697066735822122099817d82d83379f39e81c8e3ab8fcf1e6e9837a11a14f60ae411fb0f4499422e64736f6c63430008090033",
  "linkReferences": {},
  "deployedLinkReferences": {}
}